:0400000002017A324D
:03000B000201816E
:0300110002000EDC
:03000E0002012EBE
:20001400E52160FC20E7F91521C2AF7430B52236E5352425F98722438920758DFA759850C8
:20003400D28EE5352425F9879910990280FB75993E10990280FB75996110990280FB759995
:200054000A10993D80FB7430B52336E5352425F98723438920758DFA759850D28EE5352486
:2000740025F9879910990280FB75993E10990280FB75996210990280FB75990A10990280BD
:20009400FBD2AFE535243AF9AF3974022FF7E535243AF9E7B539F7C2AFE5352425F9E7FFEB
:2000B400B52232752230438920758DFA759850D28EE5352425F9879910990280FB75993CCB
:2000D40010990280FB75996110990280FB75990A10993E80FBE5352425F9E7FFB523327516
:2000F4002330438920758DFA759850D28EE5352425F9879910990280FB75993C10990280DD
:20011400FB75996210990280FB75990A10990280FBD2AF0521053E0203517520017521028E
:20013400753E0375223075233075243174E825394031E53E60FC20E7F9153E9000141201E8
:20015400AB858229E5292425F8A6247435B524067E317F008009AD240DEDFE3395E0FF8E5A
:110174002480C90203510201852222222202027F32F2
:2001850075890075A882D28C75340090012E1201AB858235E5352430F98781D0D0D083D0CB
:2001A50082D0F0D0E022C2AF740FB534047582FF22E53420E0084334017537008025E5342A
:2001C50020E1084334027537018018E53420E208433404753702800BE53420E306433408DB
:2001E500753703858136E537C454F0FF243FF581C082C0837400C0E0C0E0C0E0C0E0E5377E
:20020500FFC40354F8F5D0C0D0E5372430F8A681853681D2AF85378222C2AFC0E0C0F0C045
:2002250082C083C0D0E5352430F8A68174FD2535400BAF350FEFFE3395E0FF80047E007FB9
:20024500008E35AF358FF005F07F017E008006EF2FFFEE33FED5F0F7AC347D00EC5207ED73
:200265005206EF4E60C6E5352430F98781D0D0D083D082D0F0D0E0D2AF22C2AFC0E0C0F036
:20028500C082C083C0D0E5352430F8A681E8C0E0E9C0E0EAC0E0EBC0E0ECC0E0EDC0E0EE8A
:2002A500C0E0EFC0E0E538FF04F5387408B53841E53904F539753800AE39530638E4C423D3
:2002C500CEC423541F6ECE541FCE6ECE30E40244E074302EF59910990280FBAF3974075FB6
:2002E5002430F59910990280FB75990A10990280FB74FD2535400BAF350FEFFE3395E0FF16
:2003050080047E007F008E35AF358FF005F07401800225E0D5F0FBF536E536553460D2D0AF
:20032500E0FFD0E0FED0E0FDD0E0FCD0E0FBD0E0FAD0E0F9D0E0F8E5352430F98781D0D01D
:20034500D083D082D0F0D0E0D2AF3222C2AFE5357008E534FF14F53480287401B53509E561
:2003650034FF24FEF534801A7402B53509E534FF24FCF534800C7403B53507E534FF24F86E
:20038500F534E53430E0057535008038E53430E105753501802EE53430E205753502802497
:2003A500E53430E305753503801A75996510990280FB75996E10990280FB75996410990268
:1803C50080FB80FEE5352430F98781D0D0D083D082D0F0D0E0D2AF2260
:00000001FF
